{
  "_format": "hh-sol-artifact-1",
  "contractName": "SupernovaMinter",
  "sourceName": "contracts/SupernovaMinter.sol",
  "abi": [
    {
      "constant": true,
      "inputs": [],
      "name": "maxSupernovaCount",
      "outputs": [
        {
          "name": "",
          "type": "uint256"
        }
      ],
      "payable": false,
      "stateMutability": "view",
      "type": "function"
    },
    {
      "constant": false,
      "inputs": [],
      "name": "publicMint",
      "outputs": [
        {
          "name": "id",
          "type": "uint256"
        }
      ],
      "payable": true,
      "stateMutability": "payable",
      "type": "function"
    },
    {
      "constant": true,
      "inputs": [],
      "name": "publicSale",
      "outputs": [
        {
          "name": "",
          "type": "bool"
        }
      ],
      "payable": false,
      "stateMutability": "view",
      "type": "function"
    },
    {
      "constant": true,
      "inputs": [],
      "name": "gaiaKronos",
      "outputs": [
        {
          "name": "",
          "type": "address"
        }
      ],
      "payable": false,
      "stateMutability": "view",
      "type": "function"
    },
    {
      "constant": true,
      "inputs": [],
      "name": "devFund",
      "outputs": [
        {
          "name": "",
          "type": "address"
        }
      ],
      "payable": false,
      "stateMutability": "view",
      "type": "function"
    },
    {
      "constant": false,
      "inputs": [
        {
          "name": "recipient",
          "type": "address"
        }
      ],
      "name": "withdrawKlay",
      "outputs": [],
      "payable": false,
      "stateMutability": "nonpayable",
      "type": "function"
    },
    {
      "constant": true,
      "inputs": [],
      "name": "supernova",
      "outputs": [
        {
          "name": "",
          "type": "address"
        }
      ],
      "payable": false,
      "stateMutability": "view",
      "type": "function"
    },
    {
      "constant": false,
      "inputs": [
        {
          "name": "status",
          "type": "bool"
        }
      ],
      "name": "setPublicSale",
      "outputs": [],
      "payable": false,
      "stateMutability": "nonpayable",
      "type": "function"
    },
    {
      "constant": false,
      "inputs": [],
      "name": "renounceOwnership",
      "outputs": [],
      "payable": false,
      "stateMutability": "nonpayable",
      "type": "function"
    },
    {
      "constant": true,
      "inputs": [],
      "name": "initialSale",
      "outputs": [
        {
          "name": "",
          "type": "bool"
        }
      ],
      "payable": false,
      "stateMutability": "view",
      "type": "function"
    },
    {
      "constant": true,
      "inputs": [],
      "name": "owner",
      "outputs": [
        {
          "name": "",
          "type": "address"
        }
      ],
      "payable": false,
      "stateMutability": "view",
      "type": "function"
    },
    {
      "constant": true,
      "inputs": [],
      "name": "isOwner",
      "outputs": [
        {
          "name": "",
          "type": "bool"
        }
      ],
      "payable": false,
      "stateMutability": "view",
      "type": "function"
    },
    {
      "constant": false,
      "inputs": [
        {
          "name": "newMaxCount",
          "type": "uint256"
        }
      ],
      "name": "updateMaxSupernovaCount",
      "outputs": [],
      "payable": false,
      "stateMutability": "nonpayable",
      "type": "function"
    },
    {
      "constant": true,
      "inputs": [
        {
          "name": "",
          "type": "address"
        }
      ],
      "name": "userInitialMintingAmount",
      "outputs": [
        {
          "name": "",
          "type": "uint256"
        }
      ],
      "payable": false,
      "stateMutability": "view",
      "type": "function"
    },
    {
      "constant": false,
      "inputs": [],
      "name": "initialMint",
      "outputs": [
        {
          "name": "id",
          "type": "uint256"
        }
      ],
      "payable": true,
      "stateMutability": "payable",
      "type": "function"
    },
    {
      "constant": true,
      "inputs": [],
      "name": "supernovaPrice",
      "outputs": [
        {
          "name": "",
          "type": "uint256"
        }
      ],
      "payable": false,
      "stateMutability": "view",
      "type": "function"
    },
    {
      "constant": false,
      "inputs": [
        {
          "name": "status",
          "type": "bool"
        }
      ],
      "name": "setInitialSale",
      "outputs": [],
      "payable": false,
      "stateMutability": "nonpayable",
      "type": "function"
    },
    {
      "constant": false,
      "inputs": [
        {
          "name": "newDevFund",
          "type": "address"
        }
      ],
      "name": "updateDevFund",
      "outputs": [],
      "payable": false,
      "stateMutability": "nonpayable",
      "type": "function"
    },
    {
      "constant": false,
      "inputs": [
        {
          "name": "newOwner",
          "type": "address"
        }
      ],
      "name": "transferOwnership",
      "outputs": [],
      "payable": false,
      "stateMutability": "nonpayable",
      "type": "function"
    },
    {
      "inputs": [
        {
          "name": "_gaiaKronos",
          "type": "address"
        },
        {
          "name": "_supernova",
          "type": "address"
        },
        {
          "name": "_devFund",
          "type": "address"
        }
      ],
      "payable": false,
      "stateMutability": "nonpayable",
      "type": "constructor"
    },
    {
      "payable": true,
      "stateMutability": "payable",
      "type": "fallback"
    },
    {
      "anonymous": false,
      "inputs": [
        {
          "indexed": false,
          "name": "newDevFund",
          "type": "address"
        }
      ],
      "name": "UpdateDevFund",
      "type": "event"
    },
    {
      "anonymous": false,
      "inputs": [
        {
          "indexed": false,
          "name": "newMaxCount",
          "type": "uint256"
        }
      ],
      "name": "UpdateMaxSupernovaCount",
      "type": "event"
    },
    {
      "anonymous": false,
      "inputs": [
        {
          "indexed": false,
          "name": "status",
          "type": "bool"
        }
      ],
      "name": "SetInitialSale",
      "type": "event"
    },
    {
      "anonymous": false,
      "inputs": [
        {
          "indexed": false,
          "name": "status",
          "type": "bool"
        }
      ],
      "name": "SetPublicSale",
      "type": "event"
    },
    {
      "anonymous": false,
      "inputs": [
        {
          "indexed": true,
          "name": "previousOwner",
          "type": "address"
        },
        {
          "indexed": true,
          "name": "newOwner",
          "type": "address"
        }
      ],
      "name": "OwnershipTransferred",
      "type": "event"
    }
  ],
  "bytecode": "0x60806040526103e860025534801561001657600080fd5b506040516060806111428339810180604052606081101561003657600080fd5b5080516020820151604092830151600080546001600160a01b031916331780825594519394929391926001600160a01b0316917f8be0079c531659141344cd1fd0a4f28419497f9722a3daafe3b4186f6b6457e0908290a36001600160a01b038316158015906100ae57506001600160a01b03821615155b80156100c257506001600160a01b03811615155b61012d57604080517f08c379a000000000000000000000000000000000000000000000000000000000815260206004820152600d60248201527f57524f4e475f4144445245535300000000000000000000000000000000000000604482015290519081900360640190fd5b600380546001600160a01b039485166001600160a01b031991821617909155600180549385169382169390931790925560058054919093169116179055610fc9806101796000396000f3fe6080604052600436106101145760003560e01c80637c320853116100a05780639fc5ce2a116100645780639fc5ce2a146102d9578063b4c95968146102e1578063c74f23c7146102f6578063e40db51e14610322578063f2fde38b1461035557610114565b80637c3208531461023d5780638da5cb5b146102525780638f32d59b146102675780639d0d18db1461027c5780639f5ddbbc146102a657610114565b80634390d2a8116100e75780634390d2a81461019f578063455593ca146101b45780634a91f2b1146101e75780635aca1bb6146101fc578063715018a61461022857610114565b80630237126d1461011657806326092b831461013d57806333bc1c5c14610145578063424ddd311461016e575b005b34801561012257600080fd5b5061012b610388565b60408051918252519081900360200190f35b61012b61038e565b34801561015157600080fd5b5061015a61040a565b604080519115158252519081900360200190f35b34801561017a57600080fd5b5061018361041a565b604080516001600160a01b039092168252519081900360200190f35b3480156101ab57600080fd5b50610183610429565b3480156101c057600080fd5b50610114600480360360208110156101d757600080fd5b50356001600160a01b0316610438565b3480156101f357600080fd5b50610183610595565b34801561020857600080fd5b506101146004803603602081101561021f57600080fd5b503515156105a4565b34801561023457600080fd5b50610114610644565b34801561024957600080fd5b5061015a6106d8565b34801561025e57600080fd5b506101836106e8565b34801561027357600080fd5b5061015a6106f7565b34801561028857600080fd5b506101146004803603602081101561029f57600080fd5b5035610708565b3480156102b257600080fd5b5061012b600480360360208110156102c957600080fd5b50356001600160a01b03166107e6565b61012b6107f8565b3480156102ed57600080fd5b5061012b61094a565b34801561030257600080fd5b506101146004803603602081101561031957600080fd5b50351515610957565b34801561032e57600080fd5b506101146004803603602081101561034557600080fd5b50356001600160a01b0316610a05565b34801561036157600080fd5b506101146004803603602081101561037857600080fd5b50356001600160a01b0316610afa565b60025481565b600554600090600160a01b900460ff161580156103b45750600554600160a81b900460ff165b6103fd5760408051600160e51b62461bcd02815260206004820152600f6024820152600160881b6e554e415641494c41424c455f4e4f5702604482015290519081900360640190fd5b610405610b50565b905090565b600554600160a81b900460ff1681565b6003546001600160a01b031681565b6005546001600160a01b031681565b6104406106f7565b6104825760408051600160e51b62461bcd0281526020600482018190526024820152600080516020610f7e833981519152604482015290519081900360640190fd5b600554600160a01b900460ff161580156104a65750600554600160a81b900460ff16155b6104ef5760408051600160e51b62461bcd02815260206004820152600f6024820152600160881b6e554e415641494c41424c455f4e4f5702604482015290519081900360640190fd5b6001600160a01b03811661054d5760408051600160e51b62461bcd02815260206004820152600d60248201527f57524f4e475f4144445245535300000000000000000000000000000000000000604482015290519081900360640190fd5b303161055882610dc3565b6001600160a01b03166108fc829081150290604051600060405180830381858888f19350505050158015610590573d6000803e3d6000fd5b505050565b6001546001600160a01b031681565b6105ac6106f7565b6105ee5760408051600160e51b62461bcd0281526020600482018190526024820152600080516020610f7e833981519152604482015290519081900360640190fd5b60058054821515600160a81b8102600160a81b60ff02199092169190911790915560408051918252517f9b5abd11e9e5ca4cb073b8f0f22ad68bd9162a8cae7ba023307eaa690aa004b59181900360200190a150565b61064c6106f7565b61068e5760408051600160e51b62461bcd0281526020600482018190526024820152600080516020610f7e833981519152604482015290519081900360640190fd5b600080546040516001600160a01b03909116907f8be0079c531659141344cd1fd0a4f28419497f9722a3daafe3b4186f6b6457e0908390a3600080546001600160a01b0319169055565b600554600160a01b900460ff1681565b6000546001600160a01b031690565b6000546001600160a01b0316331490565b6107106106f7565b6107525760408051600160e51b62461bcd0281526020600482018190526024820152600080516020610f7e833981519152604482015290519081900360640190fd5b60025481116107ab5760408051600160e51b62461bcd02815260206004820152600c60248201527f57524f4e475f414d4f554e540000000000000000000000000000000000000000604482015290519081900360640190fd5b60028190556040805182815290517f8e64d50024cbcf36bfbf6f1b9465786eed61f3435fd6a54dee35387e997956639181900360200190a150565b60046020526000908152604090205481565b600554600090600160a01b900460ff166108515760408051600160e51b62461bcd02815260206004820152600f6024820152600160881b6e554e415641494c41424c455f4e4f5702604482015290519081900360640190fd5b60035460408051600160e01b6370a0823102815233600482015290516000926001600160a01b0316916370a08231916024808301926020929190829003018186803b15801561089f57600080fd5b505afa1580156108b3573d6000803e3d6000fd5b505050506040513d60208110156108c957600080fd5b5051336000908152600460205260409020805460018101909155909150811161093c5760408051600160e51b62461bcd02815260206004820152600f60248201527f414d4f554e545f45584345454445440000000000000000000000000000000000604482015290519081900360640190fd5b610944610b50565b91505090565b683635c9adc5dea0000081565b61095f6106f7565b6109a15760408051600160e51b62461bcd0281526020600482018190526024820152600080516020610f7e833981519152604482015290519081900360640190fd5b60058054821515600160a01b810274ff0000000000000000000000000000000000000000199092169190911790915560408051918252517fc82534faaaa958bc648cacba0b07c72daccd0b15d6dcedd6b20abb3c9abc226d9181900360200190a150565b610a0d6106f7565b610a4f5760408051600160e51b62461bcd0281526020600482018190526024820152600080516020610f7e833981519152604482015290519081900360640190fd5b6005546001600160a01b0382811691161415610aa65760408051600160e51b62461bcd02815260206004820152600b6024820152600160aa1b6a1393d517d0d2105391d15102604482015290519081900360640190fd5b600580546001600160a01b0383166001600160a01b0319909116811790915560408051918252517f7de9de9894d93d7f1b540d3876ef6dac577aa15e5d92a990d987e1de839e27109181900360200190a150565b610b026106f7565b610b445760408051600160e51b62461bcd0281526020600482018190526024820152600080516020610f7e833981519152604482015290519081900360640190fd5b610b4d81610dc6565b50565b6000683635c9adc5dea000003414610ba35760408051600160e51b62461bcd02815260206004820152600b6024820152600160a81b6a57524f4e475f505249434502604482015290519081900360640190fd5b600160009054906101000a90046001600160a01b03166001600160a01b03166318160ddd6040518163ffffffff1660e01b815260040160206040518083038186803b158015610bf157600080fd5b505afa158015610c05573d6000803e3d6000fd5b505050506040513d6020811015610c1b57600080fd5b50516002549091508110610c795760408051600160e51b62461bcd02815260206004820152600e60248201527f414c4c5f4e46545f4d494e544544000000000000000000000000000000000000604482015290519081900360640190fd5b60015460408051600160e01b6340c10f190281523360048201526024810184905290516001600160a01b03909216916340c10f19916044808201926020929091908290030181600087803b158015610cd057600080fd5b505af1158015610ce4573d6000803e3d6000fd5b505050506040513d6020811015610cfa57600080fd5b50506005546001600160a01b0316610d5c5760408051600160e51b62461bcd02815260206004820152600e60248201527f46554e445f414444524553535f30000000000000000000000000000000000000604482015290519081900360640190fd5b600554610d71906001600160a01b0316610dc3565b6001600160a01b03166108fc610d97683635c9adc5dea00000600a63ffffffff610e6916565b6040518115909202916000818181858888f19350505050158015610dbf573d6000803e3d6000fd5b5090565b90565b6001600160a01b038116610e0e57604051600160e51b62461bcd028152600401808060200182810382526026815260200180610f586026913960400191505060405180910390fd5b600080546040516001600160a01b03808516939216917f8be0079c531659141344cd1fd0a4f28419497f9722a3daafe3b4186f6b6457e091a3600080546001600160a01b0319166001600160a01b0392909216919091179055565b6000610eab83836040518060400160405280601a81526020017f536166654d6174683a206469766973696f6e206279207a65726f000000000000815250610eb2565b9392505050565b60008183610f4157604051600160e51b62461bcd0281526004018080602001828103825283818151815260200191508051906020019080838360005b83811015610f06578181015183820152602001610eee565b50505050905090810190601f168015610f335780820380516001836020036101000a031916815260200191505b509250505060405180910390fd5b506000838581610f4d57fe5b049594505050505056fe4f776e61626c653a206e6577206f776e657220697320746865207a65726f20616464726573734f776e61626c653a2063616c6c6572206973206e6f7420746865206f776e6572a165627a7a72305820d3adbcf51857fc1b6a8bdf3e229ead70ff6f3907b055f471fd74c89c6a9d307d0029",
  "linkReferences": {},
  "deployedLinkReferences": {}
}